{
    "_format": "hh-sol-artifact-1",
    "contractName": "UBI",
    "sourceName": "contracts/UBI.sol",
    "abi": [
        {
            "inputs": [
                {
                    "internalType": "address",
                    "name": "_cron",
                    "type": "address"
                }
            ],
            "stateMutability": "nonpayable",
            "type": "constructor"
        },
        {
            "anonymous": false,
            "inputs": [
                {
                    "indexed": false,
                    "internalType": "bool",
                    "name": "enable",
                    "type": "bool"
                }
            ],
            "name": "EmitClaimable",
            "type": "event"
        },
        {
            "anonymous": false,
            "inputs": [
                {
                    "indexed": false,
                    "internalType": "bool",
                    "name": "enable",
                    "type": "bool"
                }
            ],
            "name": "EmitSubscriptions",
            "type": "event"
        },
        {
            "inputs": [],
            "name": "checkIncomes",
            "outputs": [],
            "stateMutability": "nonpayable",
            "type": "function"
        },
        {
            "inputs": [],
            "name": "claimTokens",
            "outputs": [],
            "stateMutability": "nonpayable",
            "type": "function"
        },
        {
            "inputs": [],
            "name": "disableSubscription",
            "outputs": [],
            "stateMutability": "nonpayable",
            "type": "function"
        },
        {
            "inputs": [],
            "name": "disableSubscriptionsToChains",
            "outputs": [],
            "stateMutability": "nonpayable",
            "type": "function"
        },
        {
            "inputs": [],
            "name": "donate",
            "outputs": [
                {
                    "internalType": "string",
                    "name": "",
                    "type": "string"
                }
            ],
            "stateMutability": "payable",
            "type": "function"
        },
        {
            "inputs": [],
            "name": "enableSubscription",
            "outputs": [],
            "stateMutability": "nonpayable",
            "type": "function"
        },
        {
            "inputs": [],
            "name": "enableSubscriptionsToChains",
            "outputs": [],
            "stateMutability": "nonpayable",
            "type": "function"
        },
        {
            "inputs": [],
            "name": "getSubscription",
            "outputs": [],
            "stateMutability": "nonpayable",
            "type": "function"
        },
        {
            "inputs": [
                {
                    "internalType": "uint256",
                    "name": "_index",
                    "type": "uint256"
                }
            ],
            "name": "stopSubscription",
            "outputs": [],
            "stateMutability": "nonpayable",
            "type": "function"
        }
    ],
    "bytecode": "0x60806040523480156200001157600080fd5b50604051620013763803806200137683398181016040528101906200003791906200010a565b6000600560146101000a81548160ff0219169083151502179055506000600381905550600060078190555033600460006101000a81548173ffffffffffffffffffffffffffffffffffffffff021916908373ffffffffffffffffffffffffffffffffffffffff16021790555080600560006101000a81548173ffffffffffffffffffffffffffffffffffffffff021916908373ffffffffffffffffffffffffffffffffffffffff1602179055506000600681905550506200018f565b600081519050620001048162000175565b92915050565b60006020828403121562000123576200012262000170565b5b60006200013384828501620000f3565b91505092915050565b6000620001498262000150565b9050919050565b600073ffffffffffffffffffffffffffffffffffffffff82169050919050565b600080fd5b62000180816200013c565b81146200018c57600080fd5b50565b6111d7806200019f6000396000f3fe6080604052600436106100865760003560e01c80637fad7220116100595780637fad7220146100f9578063b6ab762a14610110578063d4e51e9314610127578063ed88c68e1461013e578063ff0b906c1461015c57610086565b8063252e1c931461008b57806335338d3f146100b45780633c6587bb146100cb57806348c54b9d146100e2575b600080fd5b34801561009757600080fd5b506100b260048036038101906100ad9190610aa6565b610173565b005b3480156100c057600080fd5b506100c96102fa565b005b3480156100d757600080fd5b506100e061048c565b005b3480156100ee57600080fd5b506100f7610599565b005b34801561010557600080fd5b5061010e610723565b005b34801561011c57600080fd5b506101256107b7565b005b34801561013357600080fd5b5061013c61087e565b005b610146610912565b6040516101539190610cc3565b60405180910390f35b34801561016857600080fd5b50610171610946565b005b600061017e33610a48565b14156101bf576040517f08c379a00000000000000000000000000000000000000000000000000000000081526004016101b690610d45565b60405180910390fd5b600060016000805490506101d39190610e4d565b815481106101e4576101e3610fc7565b5b9060005260206000200160009054906101000a900473ffffffffffffffffffffffffffffffffffffffff166000828154811061022357610222610fc7565b5b9060005260206000200160006101000a81548173ffffffffffffffffffffffffffffffffffffffff021916908373ffffffffffffffffffffffffffffffffffffffff160217905550600080548061027d5761027c610f98565b5b6001900381819060005260206000200160006101000a81549073ffffffffffffffffffffffffffffffffffffffff021916905590556000600160003373ffffffffffffffffffffffffffffffffffffffff1673ffffffffffffffffffffffffffffffffffffffff1681526020019081526020016000208190555050565b600560009054906101000a900473ffffffffffffffffffffffffffffffffffffffff1673ffffffffffffffffffffffffffffffffffffffff163373ffffffffffffffffffffffffffffffffffffffff161461035457600080fd5b600560149054906101000a900460ff166103a3576040517f08c379a000000000000000000000000000000000000000000000000000000000815260040161039a90610d05565b60405180910390fd5b600754476103b19190610e4d565b60078190555060005b60008054905081101561046f57600754600260008084815481106103e1576103e0610fc7565b5b9060005260206000200160009054906101000a900473ffffffffffffffffffffffffffffffffffffffff1673ffffffffffffffffffffffffffffffffffffffff1673ffffffffffffffffffffffffffffffffffffffff16815260200190815260200160002060008282546104559190610df7565b92505081905550808061046790610efc565b9150506103ba565b50603c600660008282546104839190610df7565b92505081905550565b600560009054906101000a900473ffffffffffffffffffffffffffffffffffffffff1673ffffffffffffffffffffffffffffffffffffffff163373ffffffffffffffffffffffffffffffffffffffff16146104e657600080fd5b600560149054906101000a900460ff16610535576040517f08c379a000000000000000000000000000000000000000000000000000000000815260040161052c90610d05565b60405180910390fd5b61012c600654101561057c576040517f08c379a000000000000000000000000000000000000000000000000000000000815260040161057390610d65565b60405180910390fd5b6000600560146101000a81548160ff021916908315150217905550565b60006105a433610a48565b14156105e5576040517f08c379a00000000000000000000000000000000000000000000000000000000081526004016105dc90610d45565b60405180910390fd5b600560149054906101000a900460ff1615610635576040517f08c379a000000000000000000000000000000000000000000000000000000000815260040161062c90610ce5565b60405180910390fd5b60003373ffffffffffffffffffffffffffffffffffffffff16600260003373ffffffffffffffffffffffffffffffffffffffff1673ffffffffffffffffffffffffffffffffffffffff1681526020019081526020016000205460405161069a90610c93565b60006040518083038185875af1925050503d80600081146106d7576040519150601f19603f3d011682016040523d82523d6000602084013e6106dc565b606091505b5050905080610720576040517f08c379a000000000000000000000000000000000000000000000000000000000815260040161071790610da5565b60405180910390fd5b50565b600460009054906101000a900473ffffffffffffffffffffffffffffffffffffffff1673ffffffffffffffffffffffffffffffffffffffff163373ffffffffffffffffffffffffffffffffffffffff161461077d57600080fd5b7f2772e8a5f2a69d6af80d9ebbfb1f69540290f55c94ef010af147882bef00262160016040516107ad9190610ca8565b60405180910390a1565b600560009054906101000a900473ffffffffffffffffffffffffffffffffffffffff1673ffffffffffffffffffffffffffffffffffffffff163373ffffffffffffffffffffffffffffffffffffffff161461081157600080fd5b600560149054906101000a900460ff1615610861576040517f08c379a000000000000000000000000000000000000000000000000000000000815260040161085890610d85565b60405180910390fd5b6001600560146101000a81548160ff021916908315150217905550565b600460009054906101000a900473ffffffffffffffffffffffffffffffffffffffff1673ffffffffffffffffffffffffffffffffffffffff163373ffffffffffffffffffffffffffffffffffffffff16146108d857600080fd5b7f2772e8a5f2a69d6af80d9ebbfb1f69540290f55c94ef010af147882bef00262160006040516109089190610ca8565b60405180910390a1565b60606000341161092157600080fd5b336040516020016109329190610c6d565b604051602081830303815290604052905090565b600061095133610a48565b14610991576040517f08c379a000000000000000000000000000000000000000000000000000000000815260040161098890610d25565b60405180910390fd5b6000339080600181540180825580915050600190039060005260206000200160009091909190916101000a81548173ffffffffffffffffffffffffffffffffffffffff021916908373ffffffffffffffffffffffffffffffffffffffff1602179055506001600354610a039190610df7565b600160003373ffffffffffffffffffffffffffffffffffffffff1673ffffffffffffffffffffffffffffffffffffffff16815260200190815260200160002081905550565b6000600160008373ffffffffffffffffffffffffffffffffffffffff1673ffffffffffffffffffffffffffffffffffffffff168152602001908152602001600020549050919050565b600081359050610aa08161118a565b92915050565b600060208284031215610abc57610abb610ff6565b5b6000610aca84828501610a91565b91505092915050565b610ae4610adf82610e81565b610f45565b82525050565b610af381610e93565b82525050565b6000610b0482610dc5565b610b0e8185610ddb565b9350610b1e818560208601610ec9565b610b2781610ffb565b840191505092915050565b6000610b3f601d83610dec565b9150610b4a82611019565b601d82019050919050565b6000610b62601f83610ddb565b9150610b6d82611042565b602082019050919050565b6000610b85601e83610ddb565b9150610b908261106b565b602082019050919050565b6000610ba8601b83610ddb565b9150610bb382611094565b602082019050919050565b6000610bcb602a83610ddb565b9150610bd6826110bd565b604082019050919050565b6000610bee601a83610ddb565b9150610bf98261110c565b602082019050919050565b6000610c11600083610dd0565b9150610c1c82611135565b600082019050919050565b6000610c34601e83610ddb565b9150610c3f82611138565b602082019050919050565b6000610c57601583610ddb565b9150610c6282611161565b602082019050919050565b6000610c7882610b32565b9150610c848284610ad3565b60148201915081905092915050565b6000610c9e82610c04565b9150819050919050565b6000602082019050610cbd6000830184610aea565b92915050565b60006020820190508181036000830152610cdd8184610af9565b905092915050565b60006020820190508181036000830152610cfe81610b55565b9050919050565b60006020820190508181036000830152610d1e81610b78565b9050919050565b60006020820190508181036000830152610d3e81610b9b565b9050919050565b60006020820190508181036000830152610d5e81610bbe565b9050919050565b60006020820190508181036000830152610d7e81610be1565b9050919050565b60006020820190508181036000830152610d9e81610c27565b9050919050565b60006020820190508181036000830152610dbe81610c4a565b9050919050565b600081519050919050565b600081905092915050565b600082825260208201905092915050565b600081905092915050565b6000610e0282610ebf565b9150610e0d83610ebf565b9250827fffffffffffffffffffffffffffffffffffffffffffffffffffffffffffffffff03821115610e4257610e41610f69565b5b828201905092915050565b6000610e5882610ebf565b9150610e6383610ebf565b925082821015610e7657610e75610f69565b5b828203905092915050565b6000610e8c82610e9f565b9050919050565b60008115159050919050565b600073ffffffffffffffffffffffffffffffffffffffff82169050919050565b6000819050919050565b60005b83811015610ee7578082015181840152602081019050610ecc565b83811115610ef6576000848401525b50505050565b6000610f0782610ebf565b91507fffffffffffffffffffffffffffffffffffffffffffffffffffffffffffffffff821415610f3a57610f39610f69565b5b600182019050919050565b6000610f5082610f57565b9050919050565b6000610f628261100c565b9050919050565b7f4e487b7100000000000000000000000000000000000000000000000000000000600052601160045260246000fd5b7f4e487b7100000000000000000000000000000000000000000000000000000000600052603160045260246000fd5b7f4e487b7100000000000000000000000000000000000000000000000000000000600052603260045260246000fd5b600080fd5b6000601f19601f8301169050919050565b60008160601b9050919050565b7f5468616e6b20796f7520666f7220796f757220646f6e6174696f6e2c20000000600082015250565b7f537562736372697074696f6e7320617265206e6f742064697361626c65642e00600082015250565b7f537562736372697074696f6e7320617265206e6f7420656e61626c65642e0000600082015250565b7f4164647265737320616c726561647920737562736372696265642e0000000000600082015250565b7f41646472657373206e6f74207375627363726962656420696e2074686520666960008201527f72737420706c6163652e00000000000000000000000000000000000000000000602082015250565b7f4e6f7420656e6f7567682074696d652068617320706173736564000000000000600082015250565b50565b7f537562736372697074696f6e7320616c726561647920656e61626c65642e0000600082015250565b7f4572726f7220636c61696d696e6720746f6b656e2e0000000000000000000000600082015250565b61119381610ebf565b811461119e57600080fd5b5056fea264697066735822122081aae71776fad9d18513b673fea756724a941b62ef934cd535c83ce34c43d2b164736f6c63430008070033",
    "linkReferences": {},
    "deployedLinkReferences": {}
}