{
  "_format": "hh-sol-artifact-1",
  "contractName": "UBI",
  "sourceName": "contracts/UBI.sol",
  "abi": [
    {
      "inputs": [
        {
          "internalType": "address",
          "name": "_cron",
          "type": "address"
        }
      ],
      "stateMutability": "nonpayable",
      "type": "constructor"
    },
    {
      "anonymous": false,
      "inputs": [
        {
          "indexed": false,
          "internalType": "bool",
          "name": "enable",
          "type": "bool"
        }
      ],
      "name": "DisableSubscriptions",
      "type": "event"
    },
    {
      "anonymous": false,
      "inputs": [
        {
          "indexed": false,
          "internalType": "bool",
          "name": "enable",
          "type": "bool"
        }
      ],
      "name": "EnableSubscriptions",
      "type": "event"
    },
    {
      "anonymous": false,
      "inputs": [
        {
          "indexed": false,
          "internalType": "address",
          "name": "addr",
          "type": "address"
        }
      ],
      "name": "Subscribe",
      "type": "event"
    },
    {
      "anonymous": false,
      "inputs": [
        {
          "indexed": false,
          "internalType": "address",
          "name": "addr",
          "type": "address"
        }
      ],
      "name": "Unsubscribe",
      "type": "event"
    },
    {
      "inputs": [],
      "name": "checkIncomes",
      "outputs": [
        {
          "internalType": "uint256",
          "name": "",
          "type": "uint256"
        }
      ],
      "stateMutability": "nonpayable",
      "type": "function"
    },
    {
      "inputs": [],
      "name": "claimTokens",
      "outputs": [],
      "stateMutability": "nonpayable",
      "type": "function"
    },
    {
      "inputs": [],
      "name": "claimable",
      "outputs": [
        {
          "internalType": "uint256",
          "name": "",
          "type": "uint256"
        }
      ],
      "stateMutability": "view",
      "type": "function"
    },
    {
      "inputs": [],
      "name": "disableSubscription",
      "outputs": [],
      "stateMutability": "nonpayable",
      "type": "function"
    },
    {
      "inputs": [],
      "name": "disableSubscriptionsToChains",
      "outputs": [],
      "stateMutability": "nonpayable",
      "type": "function"
    },
    {
      "inputs": [],
      "name": "donate",
      "outputs": [
        {
          "internalType": "string",
          "name": "",
          "type": "string"
        }
      ],
      "stateMutability": "payable",
      "type": "function"
    },
    {
      "inputs": [],
      "name": "enableSubscription",
      "outputs": [],
      "stateMutability": "nonpayable",
      "type": "function"
    },
    {
      "inputs": [],
      "name": "enableSubscriptionsToChains",
      "outputs": [],
      "stateMutability": "nonpayable",
      "type": "function"
    },
    {
      "inputs": [
        {
          "internalType": "address",
          "name": "addr",
          "type": "address"
        }
      ],
      "name": "getSubscription",
      "outputs": [],
      "stateMutability": "nonpayable",
      "type": "function"
    },
    {
      "inputs": [],
      "name": "isSubEnabled",
      "outputs": [
        {
          "internalType": "bool",
          "name": "",
          "type": "bool"
        }
      ],
      "stateMutability": "view",
      "type": "function"
    },
    {
      "inputs": [],
      "name": "isSubscribed",
      "outputs": [
        {
          "internalType": "bool",
          "name": "",
          "type": "bool"
        }
      ],
      "stateMutability": "view",
      "type": "function"
    },
    {
      "inputs": [
        {
          "internalType": "address",
          "name": "addr",
          "type": "address"
        }
      ],
      "name": "stopSubscription",
      "outputs": [],
      "stateMutability": "nonpayable",
      "type": "function"
    },
    {
      "inputs": [],
      "name": "subscribe",
      "outputs": [],
      "stateMutability": "nonpayable",
      "type": "function"
    },
    {
      "inputs": [],
      "name": "unsubscribe",
      "outputs": [],
      "stateMutability": "nonpayable",
      "type": "function"
    }
  ],
  "bytecode": "0x60806040523480156200001157600080fd5b506040516200189938038062001899833981810160405281019062000037919062000109565b6000600560146101000a81548160ff02191690831515021790555060006003819055504760078190555033600460006101000a81548173ffffffffffffffffffffffffffffffffffffffff021916908373ffffffffffffffffffffffffffffffffffffffff16021790555080600560006101000a81548173ffffffffffffffffffffffffffffffffffffffff021916908373ffffffffffffffffffffffffffffffffffffffff1602179055506000600681905550506200018e565b600081519050620001038162000174565b92915050565b6000602082840312156200012257620001216200016f565b5b60006200013284828501620000f2565b91505092915050565b600062000148826200014f565b9050919050565b600073ffffffffffffffffffffffffffffffffffffffff82169050919050565b600080fd5b6200017f816200013b565b81146200018b57600080fd5b50565b6116fb806200019e6000396000f3fe6080604052600436106100dd5760003560e01c80638aa318fc1161007f578063b6ab762a11610059578063b6ab762a1461023c578063d4e51e9314610253578063ed88c68e1461026a578063fcae448414610288576100dd565b80638aa318fc146101cf5780638f449a05146101fa578063af38d75714610211576100dd565b80633c6587bb116100bb5780633c6587bb1461015f57806348c54b9d146101765780637fad72201461018d5780638a281554146101a4576100dd565b80630cbebc24146100e257806335338d3f1461010b578063370efa3514610136575b600080fd5b3480156100ee57600080fd5b5061010960048036038101906101049190610f16565b61029f565b005b34801561011757600080fd5b506101206103b1565b60405161012d919061126e565b60405180910390f35b34801561014257600080fd5b5061015d60048036038101906101589190610f16565b610565565b005b34801561016b57600080fd5b50610174610758565b005b34801561018257600080fd5b5061018b61086d565b005b34801561019957600080fd5b506101a2610a3c565b005b3480156101b057600080fd5b506101b9610ad0565b6040516101c69190611151565b60405180910390f35b3480156101db57600080fd5b506101e4610af2565b6040516101f19190611151565b60405180910390f35b34801561020657600080fd5b5061020f610b09565b005b34801561021d57600080fd5b50610226610bdc565b604051610233919061126e565b60405180910390f35b34801561024857600080fd5b50610251610c3c565b005b34801561025f57600080fd5b50610268610d03565b005b610272610d97565b60405161027f919061116c565b60405180910390f35b34801561029457600080fd5b5061029d610de4565b005b600560009054906101000a900473ffffffffffffffffffffffffffffffffffffffff1673ffffffffffffffffffffffffffffffffffffffff163373ffffffffffffffffffffffffffffffffffffffff16146102f957600080fd5b6000819080600181540180825580915050600190039060005260206000200160009091909190916101000a81548173ffffffffffffffffffffffffffffffffffffffff021916908373ffffffffffffffffffffffffffffffffffffffff160217905550600160035461036b91906112bb565b600160008373ffffffffffffffffffffffffffffffffffffffff1673ffffffffffffffffffffffffffffffffffffffff1681526020019081526020016000208190555050565b6000600560009054906101000a900473ffffffffffffffffffffffffffffffffffffffff1673ffffffffffffffffffffffffffffffffffffffff163373ffffffffffffffffffffffffffffffffffffffff161461040d57600080fd5b600560149054906101000a900460ff1661045c576040517f08c379a0000000000000000000000000000000000000000000000000000000008152600401610453906111ae565b60405180910390fd5b600080805490506007546104709190611311565b905060005b60008054905081101561054157816002600080848154811061049a576104996114eb565b5b9060005260206000200160009054906101000a900473ffffffffffffffffffffffffffffffffffffffff1673ffffffffffffffffffffffffffffffffffffffff1673ffffffffffffffffffffffffffffffffffffffff168152602001908152602001600020600082825461050e91906112bb565b9250508190555081600760008282546105279190611342565b925050819055508080610539906113f1565b915050610475565b5060786006600082825461055591906112bb565b9250508190555060075491505090565b600560009054906101000a900473ffffffffffffffffffffffffffffffffffffffff1673ffffffffffffffffffffffffffffffffffffffff163373ffffffffffffffffffffffffffffffffffffffff16146105bf57600080fd5b60006105ca82610eb8565b90506000811415610610576040517f08c379a0000000000000000000000000000000000000000000000000000000008152600401610607906111ee565b60405180910390fd5b600060016000805490506106249190611342565b81548110610635576106346114eb565b5b9060005260206000200160009054906101000a900473ffffffffffffffffffffffffffffffffffffffff16600060018361066f9190611342565b815481106106805761067f6114eb565b5b9060005260206000200160006101000a81548173ffffffffffffffffffffffffffffffffffffffff021916908373ffffffffffffffffffffffffffffffffffffffff16021790555060008054806106da576106d96114bc565b5b6001900381819060005260206000200160006101000a81549073ffffffffffffffffffffffffffffffffffffffff021916905590556000600160003373ffffffffffffffffffffffffffffffffffffffff1673ffffffffffffffffffffffffffffffffffffffff168152602001908152602001600020819055505050565b600560009054906101000a900473ffffffffffffffffffffffffffffffffffffffff1673ffffffffffffffffffffffffffffffffffffffff163373ffffffffffffffffffffffffffffffffffffffff16146107b257600080fd5b600560149054906101000a900460ff16610801576040517f08c379a00000000000000000000000000000000000000000000000000000000081526004016107f8906111ae565b60405180910390fd5b6102586006541015610848576040517f08c379a000000000000000000000000000000000000000000000000000000000815260040161083f9061120e565b60405180910390fd5b60006006819055506000600560146101000a81548160ff021916908315150217905550565b600061087833610eb8565b14156108b9576040517f08c379a00000000000000000000000000000000000000000000000000000000081526004016108b0906111ee565b60405180910390fd5b600560149054906101000a900460ff1615610909576040517f08c379a00000000000000000000000000000000000000000000000000000000081526004016109009061118e565b60405180910390fd5b60003373ffffffffffffffffffffffffffffffffffffffff16600260003373ffffffffffffffffffffffffffffffffffffffff1673ffffffffffffffffffffffffffffffffffffffff1681526020019081526020016000205460405161096e90611121565b60006040518083038185875af1925050503d80600081146109ab576040519150601f19603f3d011682016040523d82523d6000602084013e6109b0565b606091505b50509050806109f4576040517f08c379a00000000000000000000000000000000000000000000000000000000081526004016109eb9061124e565b60405180910390fd5b6000600260003373ffffffffffffffffffffffffffffffffffffffff1673ffffffffffffffffffffffffffffffffffffffff1681526020019081526020016000208190555050565b600460009054906101000a900473ffffffffffffffffffffffffffffffffffffffff1673ffffffffffffffffffffffffffffffffffffffff163373ffffffffffffffffffffffffffffffffffffffff1614610a9657600080fd5b7f163676a291d14723ef82a95a5bf95bff59407a8173d60c86f8d7f68f59207c636001604051610ac69190611151565b60405180910390a1565b600080610adc33610eb8565b14610aea5760019050610aef565b600090505b90565b6000600560149054906101000a900460ff16905090565b600560149054906101000a900460ff16610b58576040517f08c379a0000000000000000000000000000000000000000000000000000000008152600401610b4f906111ae565b60405180910390fd5b6000610b6333610eb8565b14610ba3576040517f08c379a0000000000000000000000000000000000000000000000000000000008152600401610b9a906111ce565b60405180910390fd5b7f1aec2cf998e5b9daa15739cf56ce9bb0f29355de099191a2118402e5ac0805c833604051610bd29190611136565b60405180910390a1565b600080610be833610eb8565b14610c3457600260003373ffffffffffffffffffffffffffffffffffffffff1673ffffffffffffffffffffffffffffffffffffffff168152602001908152602001600020549050610c39565b600090505b90565b600560009054906101000a900473ffffffffffffffffffffffffffffffffffffffff1673ffffffffffffffffffffffffffffffffffffffff163373ffffffffffffffffffffffffffffffffffffffff1614610c9657600080fd5b600560149054906101000a900460ff1615610ce6576040517f08c379a0000000000000000000000000000000000000000000000000000000008152600401610cdd9061122e565b60405180910390fd5b6001600560146101000a81548160ff021916908315150217905550565b600460009054906101000a900473ffffffffffffffffffffffffffffffffffffffff1673ffffffffffffffffffffffffffffffffffffffff163373ffffffffffffffffffffffffffffffffffffffff1614610d5d57600080fd5b7fb6ecc5df78e83e5adcab79bb18acb79567f458d2b8366e51a45a9c0a8b824b406000604051610d8d9190611151565b60405180910390a1565b606060003411610da657600080fd5b3460076000828254610db891906112bb565b9250508190555033604051602001610dd091906110fb565b604051602081830303815290604052905090565b600560149054906101000a900460ff16610e33576040517f08c379a0000000000000000000000000000000000000000000000000000000008152600401610e2a906111ae565b60405180910390fd5b6000610e3e33610eb8565b1415610e7f576040517f08c379a0000000000000000000000000000000000000000000000000000000008152600401610e76906111ee565b60405180910390fd5b7feed050308c603899d7397c26bdccda0810c3ccc6e9730a8a10c452b522f8edf433604051610eae9190611136565b60405180910390a1565b6000600160008373ffffffffffffffffffffffffffffffffffffffff1673ffffffffffffffffffffffffffffffffffffffff168152602001908152602001600020549050919050565b600081359050610f10816116ae565b92915050565b600060208284031215610f2c57610f2b61151a565b5b6000610f3a84828501610f01565b91505092915050565b610f4c81611376565b82525050565b610f63610f5e82611376565b61143a565b82525050565b610f7281611388565b82525050565b6000610f8382611289565b610f8d818561129f565b9350610f9d8185602086016113be565b610fa68161151f565b840191505092915050565b6000610fbe601d836112b0565b9150610fc98261153d565b601d82019050919050565b6000610fe1601f8361129f565b9150610fec82611566565b602082019050919050565b6000611004601e8361129f565b915061100f8261158f565b602082019050919050565b6000611027601b8361129f565b9150611032826115b8565b602082019050919050565b600061104a602a8361129f565b9150611055826115e1565b604082019050919050565b600061106d601a8361129f565b915061107882611630565b602082019050919050565b6000611090600083611294565b915061109b82611659565b600082019050919050565b60006110b3601e8361129f565b91506110be8261165c565b602082019050919050565b60006110d660158361129f565b91506110e182611685565b602082019050919050565b6110f5816113b4565b82525050565b600061110682610fb1565b91506111128284610f52565b60148201915081905092915050565b600061112c82611083565b9150819050919050565b600060208201905061114b6000830184610f43565b92915050565b60006020820190506111666000830184610f69565b92915050565b600060208201905081810360008301526111868184610f78565b905092915050565b600060208201905081810360008301526111a781610fd4565b9050919050565b600060208201905081810360008301526111c781610ff7565b9050919050565b600060208201905081810360008301526111e78161101a565b9050919050565b600060208201905081810360008301526112078161103d565b9050919050565b6000602082019050818103600083015261122781611060565b9050919050565b60006020820190508181036000830152611247816110a6565b9050919050565b60006020820190508181036000830152611267816110c9565b9050919050565b600060208201905061128360008301846110ec565b92915050565b600081519050919050565b600081905092915050565b600082825260208201905092915050565b600081905092915050565b60006112c6826113b4565b91506112d1836113b4565b9250827fffffffffffffffffffffffffffffffffffffffffffffffffffffffffffffffff038211156113065761130561145e565b5b828201905092915050565b600061131c826113b4565b9150611327836113b4565b9250826113375761133661148d565b5b828204905092915050565b600061134d826113b4565b9150611358836113b4565b92508282101561136b5761136a61145e565b5b828203905092915050565b600061138182611394565b9050919050565b60008115159050919050565b600073ffffffffffffffffffffffffffffffffffffffff82169050919050565b6000819050919050565b60005b838110156113dc5780820151818401526020810190506113c1565b838111156113eb576000848401525b50505050565b60006113fc826113b4565b91507fffffffffffffffffffffffffffffffffffffffffffffffffffffffffffffffff82141561142f5761142e61145e565b5b600182019050919050565b60006114458261144c565b9050919050565b600061145782611530565b9050919050565b7f4e487b7100000000000000000000000000000000000000000000000000000000600052601160045260246000fd5b7f4e487b7100000000000000000000000000000000000000000000000000000000600052601260045260246000fd5b7f4e487b7100000000000000000000000000000000000000000000000000000000600052603160045260246000fd5b7f4e487b7100000000000000000000000000000000000000000000000000000000600052603260045260246000fd5b600080fd5b6000601f19601f8301169050919050565b60008160601b9050919050565b7f5468616e6b20796f7520666f7220796f757220646f6e6174696f6e2c20000000600082015250565b7f537562736372697074696f6e7320617265206e6f742064697361626c65642e00600082015250565b7f537562736372697074696f6e7320617265206e6f7420656e61626c65642e0000600082015250565b7f4164647265737320616c726561647920737562736372696265642e0000000000600082015250565b7f41646472657373206e6f74207375627363726962656420696e2074686520666960008201527f72737420706c6163652e00000000000000000000000000000000000000000000602082015250565b7f4e6f7420656e6f7567682074696d652068617320706173736564000000000000600082015250565b50565b7f537562736372697074696f6e7320616c726561647920656e61626c65642e0000600082015250565b7f4572726f7220636c61696d696e6720746f6b656e2e0000000000000000000000600082015250565b6116b781611376565b81146116c257600080fd5b5056fea2646970667358221220e8951de48c6bba8c3ac233d4bc42859f3bc87721d8ea33cca92cd8ea42d5eebb64736f6c63430008070033",
  "linkReferences": {},
  "deployedLinkReferences": {}
}